:20E00000B240805A2001B012E0E1B012BAE1F240CC002200C2432600C24341000D120E1263
:20E020003D407CC43E401D001D830E73FD230D93FB233E413D41003CF2D0400026000D1209
:20E040000E123D407CC43E401D001D830E73FD230D93FB233E413D41003CF2D040004100CD
:20E060000D120E123D407CC43E401D001D830E73FD230D93FB233E413D41003CF2F0BF0030
:20E0800041000D120E123D407CC43E401D001D830E73FD230D93FB233E413D41003CF2F08E
:20E0A000BF00260032D0F0000343B83F0F120E120D120C120B125D4202020D5D0D5D1C42DC
:20E0C0000002B01200E14C4C7CF00F004C4C5C4C56E2F2F0F0002100C24C19005D42020253
:20E0E0001C43B0128EE1C2DC2100D2530202F2F0030002023B413C413D413E413F41001336
:20E100003DF00F003DE00F000D5D0D5D005D12C30C1012C30C1012C30C1012C30C1012C3CD
:20E120000C1012C30C1012C30C1012C30C1012C30C1012C30C1012C30C1012C30C1012C357
:20E140000C1012C30C1012C30C1030410A1209123F406AE23F906CE216243F406CE23F905B
:20E1600070E211243A4070E23A806CE20A110A1139406CE23C497F4C0F5F1F4F6AE23D4949
:20E180008F121A83F723B01254E230403CE23DF00F003DE00F000D5D005D0C5C0C5C0C5C3A
:20E1A0000C5C0C5C0C5C0C5C0C5C0C5C0C5C0C5C0C5C0C5C0C5C0C5C3041B2403F1F72014B
:20E1C000B240E0006401B240E0006601B240A00F7401B240B80B7601B240100260013041B7
:20E1E000F293FD100C24C2435600D242FD105700D242FC105600F2D020005300013CFF3F64
:20E20000304131400004B01250E20C930224B0124CE10C43B01200E01C43B0124AE21F4CC7
:20E2200001000F9305241D53CD43FFFF1F83FB2330413441354136413741384139413A411B
:16E24000304132D01000FD3F03430343FF3F03431C4330413041B8
:10E256004079243019120278001808034621060E68
:0AE26600000004001EE266E2000260
:02FFDE00FFFF23
:02FFE40042E2F7
:02FFE60042E2F5
:02FFEA0042E2F1
:02FFEC0042E2EF
:02FFEE0042E2ED
:02FFF00042E2EB
:02FFF20042E2E9
:02FFF400ACE07F
:02FFF60042E2E5
:02FFF80042E2E3
:02FFFA0042E2E1
:02FFFC0042E2DF
:02FFFE0002E21D
:00000001FF
