:20E00000B240805A2001B01222E2B012F4E13C40F401B01258E25C43B01252E10D120E1276
:20E020003D401CE13E4006001D830E73FD230D93FB233E413D41003C7C400300B01252E1F6
:20E040000D120E123D401CE13E4006001D830E73FD230D93FB233E413D41003C7C4005008A
:20E06000B01252E10D120E123D401CE13E4006001D830E73FD230D93FB233E413D41003C36
:20E080007C42B01252E10D120E123D401CE13E4006001D830E73FD230D93FB233E413D4194
:20E0A000003C7C400600B01252E10D120E123D401CE13E4006001D830E73FD230D93FB2331
:20E0C0003E413D41003C7C400700B01252E10D120E123D401CE13E4006001D830E73FD23D1
:20E0E0000D93FB233E413D41003C6C42B01252E10D120E123D401CE13E4006001D830E7328
:20E10000FD230D93FB233E413D41003C6C43B01252E10D120E123D401CE13E4006001D8367
:20E120000E73FD230D93FB233E413D41003C4C43B01252E10D120E123D401CE13E40060086
:20E140001D830E73FD230D93FB233E413D41003C623F4C4C3C9009004C2C0C5C104C60E1FC
:20E16000E6E1D8E1CAE1BCE1ACE19CE18EE180E172E1E2D22600F2C22600D2C31900393CD3
:20E18000F2D22600E2C22600E2C31900323CF2F0FC001900F2400C0026002B3CE2D319000F
:20E1A000D2C31900F2400C002600233CD2D31900E2C31900F2400C0026001B3CF2D22600CD
:20E1C000E2C22600E2D31900143CE2D22600F2C22600D2D319000D3CF2D003001900F2408C
:20E1E0000C002600063CF2F0F3002600F2F0F30021003041B240E8037201B240E0006401C2
:20E2000082437401B240E000660182437601B240D0026001F2D003001A00F2400C002200EB
:20E220003041F293FD100C24C2435600D242FD105700D242FC105600F2D020005300013CF0
:20E24000FF3F304131400004B01270E20C43B01200E01C43B0126AE2824C7401824C7601A0
:14E26000304132D01000FD3F03430343FF3F03431C4330410B
:02FFDE00FFFF23
:02FFE40062E2D7
:02FFE60062E2D5
:02FFEA0062E2D1
:02FFEC0062E2CF
:02FFEE0062E2CD
:02FFF00062E2CB
:02FFF20062E2C9
:02FFF40062E2C7
:02FFF60062E2C5
:02FFF80062E2C3
:02FFFA0062E2C1
:02FFFC0062E2BF
:02FFFE0044E2DB
:00000001FF
