:20E00000B240805A2001B01228E2B012FAE13C403200B0125EE25C43B01258E10D120E1221
:20E020003D401CE13E4006001D830E73FD230D93FB233E413D41003C7C400300B01258E1F0
:20E040000D120E123D401CE13E4006001D830E73FD230D93FB233E413D41003C7C4005008A
:20E06000B01258E10D120E123D401CE13E4006001D830E73FD230D93FB233E413D41003C30
:20E080007C42B01258E10D120E123D401CE13E4006001D830E73FD230D93FB233E413D418E
:20E0A000003C7C400600B01258E10D120E123D401CE13E4006001D830E73FD230D93FB232B
:20E0C0003E413D41003C7C400700B01258E10D120E123D401CE13E4006001D830E73FD23CB
:20E0E0000D93FB233E413D41003C6C42B01258E10D120E123D401CE13E4006001D830E7322
:20E10000FD230D93FB233E413D41003C6C43B01258E10D120E123D401CE13E4006001D8361
:20E120000E73FD230D93FB233E413D41003C4C43B01258E10D120E123D407CC43E401D0026
:20E140001D830E73FD230D93FB233E413D41003C32D0F00003435F3F4C4C3C9009004C2CCC
:20E160000C5C104C66E1ECE1DEE1D0E1C2E1B2E1A2E194E186E178E1E2D22600F2C22600B5
:20E18000D2C31900393CF2D22600E2C22600E2C31900323CF2F0FC001900F2400C00260021
:20E1A0002B3CE2D31900D2C31900F2400C002600233CD2D31900E2C31900F2400C002600D9
:20E1C0001B3CF2D22600E2C22600E2D31900143CE2D22600F2C22600D2D319000D3CF2D099
:20E1E00003001900F2400C002600063CF2F0F3002600F2F0F30021003041B2406400720132
:20E20000B240E000640182437401B240E000660182437601B24010016001F2D003001A00D5
:20E22000F2400C0022003041F293FD100C24C2435600D242FD105700D242FC105600F2D040
:20E2400020005300013CFF3F304131400004B01276E20C43B01200E01C43B01270E2824C9E
:1AE260007401824C7601304132D01000FD3F03430343FF3F03431C4330414B
:02FFDE00FFFF23
:02FFE40068E2D1
:02FFE60068E2CF
:02FFEA0068E2CB
:02FFEC0068E2C9
:02FFEE0068E2C7
:02FFF00068E2C5
:02FFF20068E2C3
:02FFF40068E2C1
:02FFF60068E2BF
:02FFF80068E2BD
:02FFFA0068E2BB
:02FFFC0068E2B9
:02FFFE004AE2D5
:00000001FF
