:20E00000B240805A2001B01264E0B0123EE0F2400C002600F2431A00E2E319000D120E125D
:20E020003D407CC43E401D001D830E73FD230D93FB233E413D41003CD2E31900ED3FB24064
:20E04000801F7201B240E0006401B240A00F7401B240E0006601B24094117601B240100216
:20E0600060013041F293FD100C24C2435600D242FD105700D242FC105600F2D0200053008E
:20E08000013CFF3F304131400004B012A8E00C43B01200E01C43B012A2E032D01000FD3FF3
:0CE0A00003430343FF3F03431C43304194
:02FFDE00FFFF23
:02FFE4009AE0A1
:02FFE6009AE09F
:02FFEA009AE09B
:02FFEC009AE099
:02FFEE009AE097
:02FFF0009AE095
:02FFF2009AE093
:02FFF4009AE091
:02FFF6009AE08F
:02FFF8009AE08D
:02FFFA009AE08B
:02FFFC009AE089
:02FFFE0086E09B
:00000001FF
