:20C00000B240805A2001B0128CC0B01266C0C2432E00E2422E000D120E123D407CC43E403E
:20C020001D001D830E73FD230D93FB233E413D41003CC2432E00E2432E000D120E123D4069
:20C040007CC43E401D001D830E73FD230D93FB233E413D41003CC2432E00F24006002E0034
:20C0600032D0F000D43FB2403F1F9201B240E0008401B240E0008601B240A00F9401B24000
:20C08000B80B9601B240100280013041F293FD100C24C2435600D242FD105700D242FC109B
:20C0A0005600F2D020005300013CFF3F304131400004B012D0C00C43B01200C01C43B01250
:14C0C000CAC032D01000FD3F03430343FF3F03431C433041B4
:02FFDE00FFFF23
:02FFE000C2C09D
:02FFE400C2C099
:02FFE600C2C097
:02FFEA00C2C093
:02FFEC00C2C091
:02FFEE00C2C08F
:02FFF000C2C08D
:02FFF200C2C08B
:02FFF400C2C089
:02FFF600C2C087
:02FFF800C2C085
:02FFFA00C2C083
:02FFFC00C2C081
:02FFFE00AEC093
:00000001FF
